S00A000070322E7372656378
S11300000C9436000C9412010C9429010C944601B2
S11300100C9494020C9453000C9453000C945300CD
S11300200C9453000C9453000C94D3010C9453007F
S11300300C9453000C9453000C9453000C945300F0
S11300400C9453000C9453000C9453000C945300E0
S11300500C945300640068006C0070007400780015
S11300607C008000840088008C00900011241FBE56
S1130070CFE5D8E0DEBFCDBF10E0A0E6B0E0E4EA13
S1130080FEE002C005900D92A037B107D9F720E039
S1130090A0E7B0E001C01D92A439B207E1F70E94C5
S11300A0F8040C9450070C9400009BB3907F9BBB06
S11300B095B315BA462F50E04C305105A0F5FA011E
S11300C0E65DFF4F0C94360795B39F6395BB2BC039
S11300D095B3966095BB27C095B39B6595BB23C02C
S11300E095B39F6495BB1FC095B3966695BB1BC023
S11300F095B39D6695BB17C095B39D6795BB13C01B
S113010095B3976095BB0FC095B39F6795BB0BC024
S113011095B39F6695BB07C095B3996395BB03C020
S113012095B3936695BB823069F018F4813031F051
S11301300895833071F0843081F008958BB3816029
S11301408BBB08958BB382608BBB85B3806885BB02
S113015008958BB384608BBB08958BB388608BBB8D
S1130160089582EA8FBD8AE18EBD089580E88FBF2D
S11301708BE083BF12BE8DE78CBF89B7826089BFD5
S1130180089580E88FBF8CE085BD14BC8DE783BDE6
S113019089B7806889BF089597B1907E97B997B160
S11301A0892B87B986B1806486B93699FECF64B14C
S11301B070E0709389006093880095B1892F90E076
S11301C09093830080938200982F8827682B792B43
S11301D0072E000C880B990B0E942906089580E4D1
S11301E087B987E886B908958BB780648BBF85B7D4
S11301F0826085BF8FB780688FBF08958BB7806892
S11302008BBF85B78C6085BF8FB780688FBF08951B
S11302108BB780628BBF84B78F7B84BF8FB78068B6
S11302208FBF08951F920F920FB60F9211248F93D0
S11302309F9380916E0090916F00019690936F0050
S113024080936E009F918F910F900FBE0F901F901F
S113025018951F920F920FB60F9211248F939F93AC
S113026080916A0090916B00019690936B0080934B
S11302706A00039721F410926B0010926A009F9118
S11302808F910F900FBE0F901F9018951F920F9291
S11302900FB60F9211242F933F934F935F938F9335
S11302A09F9380916A0090916B0081309105C1F514
S11302B020916E0030916F002130310551F440914E
S11302C08E0050918F004F5F5F4F50938F0040938B
S11302D08E002330310551F440917C0050917D0013
S11302E04F5F5F4F50937D0040937C002430310575
S11302F051F440916400509165004F5F5F4F5093FB
S11303006500409364002530310551F4209160006C
S1130310309161002F5F3F4F309361002093600064
S11303200297B1F580916E0090916F008130910534
S113033051F420919200309193002F5F3F4F3093FE
S11303409300209392008330910551F420916C0026
S113035030916D002F5F3F4F30936D0020936C0000
S11303608430910551F420917000309171002F5F19
S11303703F4F3093710020937000059749F48091AA
S113038062009091630001969093630080936200F1
S11303909F918F915F914F913F912F910F900FBE3D
S11303A00F901F9018951F920F920FB60F92112461
S11303B02F933F934F935F936F937F938F939F9369
S11303C0AF93BF93EF93FF93809176009091770062
S11303D0873E23E09207C1F487E00E94CC0020E02E
S11303E030E040E05FE30E94B50620E030E040E802
S11303F05FE30E94120560937E0070937F008093F8
S113040080009093810005C00196909377008093BB
S1130410760020918E0030918F008091640090913D
S113042065002817390781F52091920030919300D7
S113043080917000909171002817390729F5109266
S11304408B0010928A008091690087BD80916800BA
S113045086BD20916800309169002F5F3F4FC9012C
S113046099230CF401969595879599BD2091680080
S1130470309169002F5F3F4FC90199230CF4019615
S11304809595879588BD02C019BC18BC20917C0045
S113049030917D00809160009091610028173907A8
S11304A081F520916C0030916D00809162009091F3
S11304B063002817390729F510928B0010928A00DF
S11304C08091670087BD8091660086BD209166009B
S11304D0309167002F5F3F4FC90199230CF40196B7
S11304E0959587959BBD20916600309167002F5F9D
S11304F03F4FC90199230CF40196959587958ABDC0
S113050002C01BBC1ABCFF91EF91BF91AF919F91A8
S11305108F917F916F915F914F913F912F910F90A8
S11305200FBE0F901F9018951F920F920FB60F9247
S11305301124CF92DF92EF92FF922F933F934F9328
S11305405F936F937F938F939F93AF93BF93EF9337
S1130550FF93B09B3AC080916E0090916F00813000
S1130560910579F4109291001092900010928F00EE
S113057010928E00109293001092920019BC18BC35
S113058024C08330910589F410927B0010927A0084
S1130590109279001092780010927D0010927C00E5
S11305A010926D0010926C0010C08430910549F4D3
S11305B01092710010927000109265001092640005
S11305C004C0059711F41BBC1ABCB19B11C08091E7
S11305D08A0090918B00892B39F481E090E090930C
S11305E08B0080938A0004C010928B0010928A00C2
S11305F080918A0090918B00019751F58091900031
S113060090919100873E23E09207E9F480918E0057
S113061090918F00019690938F0080938E0010929A
S1130620910010929000CC9799F410928F00109240
S11306308E00809192009091930001969093930084
S11306408093920005C0019690939100809390004E
S113065080917A0090917B00873E23E09207D1F548
S1130660809178009091790001969093790080931D
S1130670780010927B0010927A00CC9769F4109263
S113068079001092780080917C0090917D00019611
S113069090937D0080937C0080917C0090917D00FC
S11306A0CC9769F410927D0010927C0080916C00CC
S11306B090916D00019690936D0080936C008091F1
S11306C06C0090916D00489751F410926D00109257
S11306D06C0005C0019690937B0080937A00809112
S11306E06E0090916F008330910509F441C034F499
S11306F08130910569F00297E1F073C0853091056E
S113070009F458C00CF445C0069709F464C069C0E4
S1130710809192009091930090938700809386003B
S113072080918E0090918F00909385008093840037
S113073058C0C0907E00D0907F00E0908000F09080
S1130740810020E030E048EC52E4C701B6010E9489
S11307507F050E94F1057093850060938400C701B2
S1130760B6010E94F105709387006093860039C03A
S113077080916C0090916D00909387008093860027
S113078080917C0090917D009093850080938400FB
S113079028C080917000909171009093870080939D
S11307A08600809164009091650090938500809309
S11307B0840017C080916200909163009093870039
S11307C080938600809160009091610090938500F1
S11307D08093840006C081E090E090936F00809342
S11307E06E0080916A0090916B00009709F06FC0D1
S11307F080918C0090918D00019690938D00809350
S11308008C008230910519F11CF4019741F0DBC092
S113081083309105C9F1049709F443C0D4C0809191
S11308206E0090916F00029729F46AE084E00E94C0
S11308305500C9C080918400909185006AE070E001
S11308400E942207682F84E00E945500BCC080915A
S11308506E0090916F00029729F46BE083E00E9490
S11308605500B1C080918400909185002AE030E069
S1130870B9010E942207CB01B9010E942207682F07
S113088083E00E9455009FC080918600909187006C
S11308906AE070E00E942207682F82E00E945500FF
S11308A092C080918600909187002AE030E0B901DF
S11308B00E942207CB01B9010E942207682F81E020
S11308C00E94550010928D0010928C007CC00197FC
S11308D009F048C08091740090917500019690933E
S11308E07500809374008130910519F00297C9F066
S11308F06AC080916E0090916F00029729F46AE0BB
S113090084E00E9455005FC080918400909185002E
S11309106AE070E00E942207682F84E00E9455007C
S113092052C080916E0090916F00029729F46BE0A1
S113093083E00E94550011C080918400909185004D
S11309402AE030E0B9010E942207CB01B9010E94DC
S11309502207682F83E00E945500109275001092C0
S1130960740031C08091720090917300019690934D
S11309707300809372008130910519F0029771F031
S113098022C080918600909187006AE070E00E9406
S11309902207682F82E00E94550015C080918600CE
S11309A0909187002AE030E0B9010E942207CB0130
S11309B0B9010E942207682F81E00E94550010921D
S11309C0730010927200FF91EF91BF91AF919F91CC
S11309D08F917F916F915F914F913F912F91FF90F4
S11309E0EF90DF90CF900F900FBE0F901F9018954F
S11309F08FE08ABB8FEF84BB17BA81B3806181BB60
S1130A0081B3806281BB0E94B1000E94B6000E9443
S1130A10C1000E94F4000E94FE000E94EF000E94A8
S1130A200801FFCF5058BB27AA270E942A050C941F
S1130A307B060E946D0638F00E94740620F039F49B
S1130A409F3F19F426F40C946A060EF4E095E7FB34
S1130A500C946406E92F0E948C0658F3BA176207B7
S1130A6073078407950720F079F4A6F50C94AE0675
S1130A700EF4E0950B2EBA2FA02D0B01B9019001B5
S1130A800C01CA01A0011124FF27591B99F0593FF9
S1130A9050F4503E68F11A16F040A22F232F342F41
S1130AA04427585FF3CF469537952795A795F0408F
S1130AB05395C9F77EF41F16BA0B620B730B840BA4
S1130AC0BAF09150A1F0FF0FBB1F661F771F881F5C
S1130AD0C2F70EC0BA0F621F731F841F48F48795B4
S1130AE077956795B795F7959E3F08F0B0CF9395A6
S1130AF0880F08F09927EE0F9795879508950E941F
S1130B0093050C947B060E94740658F00E946D06AF
S1130B1040F029F45F3F29F00C94640651110C94C1
S1130B20AF060C946A060E948C0668F39923B1F30D
S1130B30552391F3951B550BBB27AA2762177307FF
S1130B40840738F09F5F5F4F220F331F441FAA1F93
S1130B50A9F335D00E2E3AF0E0E832D0915050404F
S1130B60E695001CCAF72BD0FE2F29D0660F771FFD
S1130B70881FBB1F261737074807AB07B0E809F0E3
S1130B80BB0B802DBF01FF2793585F4F3AF09E3F68
S1130B90510578F00C9464060C94AF065F3FE4F3BF
S1130BA0983ED4F3869577956795B795F7959F5FAB
S1130BB0C9F7880F911D9695879597F90895E1E0F7
S1130BC0660F771F881FBB1F621773078407BA0756
S1130BD020F0621B730B840BBA0BEE1F88F7E095B1
S1130BE008950E94F8056894B1110C94AF06089515
S1130BF00E94940688F09F5798F0B92F9927B7510F
S1130C00B0F0E1F0660F771F881F991F1AF0BA95AC
S1130C10C9F714C0B13091F00E94AE06B1E0089556
S1130C200C94AE06672F782F8827B85F39F0B93F48
S1130C30CCF3869577956795B395D9F73EF490955F
S1130C408095709561957F4F8F4F9F4F0895E894DD
S1130C5009C097FB3EF490958095709561957F4F00
S1130C608F4F9F4F9923A9F0F92F96E9BB279395AE
S1130C70F695879577956795B795F111F8CFFAF4BE
S1130C80BB0F11F460FF1BC06F5F7F4F8F4F9F4FEF
S1130C9016C0882311F096E911C0772321F09EE84D
S1130CA0872F762F05C0662371F096E8862F70E0B3
S1130CB060E02AF09A95660F771F881FDAF7880F8D
S1130CC09695879597F9089597F99F6780E870E05E
S1130CD060E008959FEF80EC089500240A941616AE
S1130CE0170618060906089500240A941216130616
S1130CF0140605060895092E0394000C11F48823A4
S1130D0052F0BB0F40F4BF2B11F460FF04C06F5FBF
S1130D107F4F8F4F9F4F089557FD9058440F551F95
S1130D2059F05F3F71F04795880F97FB991F61F069
S1130D309F3F79F087950895121613061406551FE0
S1130D40F2CF4695F1DF08C0161617061806991F4C
S1130D50F1CF86957105610508940895E894BB2741
S1130D6066277727CB0197F908950E94C8060C944B
S1130D707B060E946D0638F00E94740620F09523CD
S1130D8011F00C9464060C946A0611240C94AF06BA
S1130D900E948C0670F3959FC1F3950F50E0551F88
S1130DA0629FF001729FBB27F00DB11D639FAA27BC
S1130DB0F00DB11DAA1F649F6627B00DA11D661F0B
S1130DC0829F2227B00DA11D621F739FB00DA11D2C
S1130DD0621F839FA00D611D221F749F3327A00DE6
S1130DE0611D231F849F600D211D822F762F6A2F82
S1130DF011249F5750409AF0F1F088234AF0EE0FE7
S1130E00FF1FBB1F661F771F881F91505040A9F713
S1130E109E3F510580F00C9464060C94AF065F3F2E
S1130E20E4F3983ED4F3869577956795B795F7954F
S1130E30E7959F5FC1F7FE2B880F911D96958795C7
S1130E4097F9089597FB072E16F4009407D077FDC1
S1130E5009D00E943C0707FC05D03EF4909581958B
S1130E609F4F0895709561957F4F0895EE0FFF1F72
S1130E700590F491E02D0994AA1BBB1B51E107C016
S1130E80AA1FBB1FA617B70710F0A61BB70B881F16
S1130E90991F5A95A9F780959095BC01CD010895A5
S1070EA0F894FFCFF0
S1130EA401000B000A00B80BD00702000B0001007C
S9030000FC
